:100000000C9434000C9451000C9451000C94510049
:100010000C9451000C9451000C9451000C9451001C
:100020000C9451000C9451000C9451000C9451000C
:100030000C9451000C9451000C9451000C945100FC
:100040000C9451000C9451000C9451000C945100EC
:100050000C9451000C9451000C9451000C945100DC
:100060000C9451000C94510011241FBECFEFD8E026
:10007000DEBFCDBF11E0A0E0B1E0ECE8F2E002C0ED
:1000800005900D92A430B107D9F711E0A4E0B1E0DA
:1000900001C01D92A331B107E1F70E94A1000C94A9
:1000A00044010C94000086E085BD08958093C6004D
:1000B0008091C00085FFFCCF0895EF92FF920F93CF
:1000C0001F937B018C01CA01B90120E130E040E0BF
:1000D00050E00E94D200CA01B901A80197010E9414
:1000E000D20021503040832F992787FD9A95809325
:1000F000C5002093C40088E98093C10086E0809306
:10010000C2001F910F91FF90EF900895AC01DC01A8
:100110000D900020E9F71197A81BB90B20E030E003
:100120000CC0FA01E20FF31F80818093C60080911A
:10013000C00085FFFCCF2F5F3F4F2A173B0788F396
:10014000089586E085BD60E875E280E090E020E0FB
:1001500034E244EF50E00E945D0026B56091040156
:10016000709105018091060190910701620F711D48
:10017000811D911D60930401709305018093060118
:100180009093070116BC48E051E02AE030E00E945D
:100190000F0188E091E00E94860080E091E00E94DB
:1001A0008600DBCF97FB092E05260ED057FD04D025
:1001B00014D00AD0001C38F4509540953095219504
:1001C0003F4F4F4F5F4F0895F6F79095809570958C
:1001D00061957F4F8F4F9F4F0895A1E21A2EAA1B62
:1001E000BB1BFD010DC0AA1FBB1FEE1FFF1FA217E7
:1001F000B307E407F50720F0A21BB30BE40BF50BE4
:10020000661F771F881F991F1A9469F7609570956C
:10021000809590959B01AC01BD01CF010895FA0135
:10022000CF93FF93EF932230CCF02532BCF4C22F52
:100230002C2F332744275527FF93EF930E94ED007F
:10024000EF91FF91605D6A330CF0695D6193B901D4
:10025000CA01605070408040904051F710828F91E9
:100260009F91CF910C943401DC01FC01672F7191B7
:100270007723E1F7329704C07C916D93708362918C
:0C028000AE17BF07C8F30895F894FFCF35
:04028C000D0A000057
:00000001FF
