:100000000C9434000C9451000C9451000C94510049
:100010000C9451000C9451000C9451000C9451001C
:100020000C9451000C9451000C9451000C9451000C
:100030000C9451000C9451000C9451000C945100FC
:100040000C9451000C9451000C9451000C945100EC
:100050000C9451000C9451000C9451000C945100DC
:100060000C9451000C94510011241FBECFEFD8E026
:10007000DEBFCDBF11E0A0E0B1E0E0E2F4E002C0FD
:1000800005900D92A430B107D9F711E0A4E0B1E0DA
:1000900001C01D92AB30B107E1F70E943E010C9404
:1000A0000E020C940000289A08958CE08093B8000A
:1000B0000895982F84EA8093BC008091BC0087FF4C
:1000C000FCCF8091B900887F883009F0289A80EDB4
:1000D0008093BB0084E88093BC008091BC0087FFC4
:1000E000FCCF8091B900887F883109F0289A9093DD
:1000F000BB0084E88093BC008091BC0087FFFCCFEC
:100100008091B900887F883209F0289A08950E946A
:10011000590084EA8093BC008091BC0087FFFCCF2B
:100120008091B900887F803109F0289A81ED809311
:10013000BB0084E88093BC008091BC0087FFFCCFAB
:100140008091B900887F803409F0289A84EC8093EC
:10015000BC008091BC0087FFFCCF3091BB00809138
:10016000B900887F803509F0289A84E88093BC0024
:100170008091BC0087FFFCCF2091BB008091B9002B
:10018000887F803509F0289A84E98093BC00932FFA
:1001900080E030E0282B392BC90108951F93162FDA
:1001A0000E9459001093BB0084E88093BC008091AA
:1001B000BC0087FFFCCF8091B900887F883209F0AE
:1001C000289A84E98093BC001F9108958BE660E033
:1001D0000E94CE008CE160E10E94CE008BE168E0DD
:1001E0000E94CE0008958093C6008091C00085FFD4
:1001F000FCCF0895EF92FF920F931F937B018C0128
:10020000CA01B90120E130E040E050E00E948C01D9
:10021000CA01B901A80197010E948C012150304008
:10022000832F992787FD9A958093C5002093C4005A
:1002300088E18093C10086E08093C2001F910F91F6
:10024000FF90EF900895AC01DC010D900020E9F7DC
:100250001197A81BB90B20E030E00CC0FA01E20FA7
:10026000F31F80818093C6008091C00085FFFCCF82
:100270002F5F3F4F2A173B0788F30895DF92EF92D5
:10028000FF920F931F93CF93DF938CE08093B8007E
:100290000E94E60060E875E280E090E020E034E251
:1002A00044EF50E00E94FA0087B18F6087B984B1B3
:1002B0008F6184B92CE2D22E90E4E92E9CE9F92ECC
:1002C0008DE30E9487008C0183E40E948700EC018B
:1002D000C80164E071E04AE050E00E94C90184E096
:1002E00091E00E942301D092C6008091C00085FF5A
:1002F000FCCFCE0164E071E04AE050E00E94C90109
:1003000084E091E00E94230180E091E00E942301BB
:10031000C7010197F1F7D4CF97FB092E05260ED020
:1003200057FD04D014D00AD0001C38F450954095E5
:10033000309521953F4F4F4F5F4F0895F6F79095B9
:100340008095709561957F4F8F4F9F4F0895A1E2E3
:100350001A2EAA1BBB1BFD010DC0AA1FBB1FEE1F3F
:10036000FF1FA217B307E407F50720F0A21BB30B8A
:10037000E40BF50B661F771F881F991F1A9469F706
:1003800060957095809590959B01AC01BD01CF0162
:100390000895FB019F01E8944230C4F04532B4F463
:1003A0004A3029F497FB1EF4909581959F4F642F56
:1003B00077270E94FA01805D8A330CF0895D819372
:1003C000CB010097A1F716F45DE251931082C901A9
:1003D0000C94EA01DC01FC01672F71917723E1F7AE
:1003E000329704C07C916D9370836291AE17BF0702
:1003F000C8F30895AA1BBB1B51E107C0AA1FBB1F6E
:10040000A617B70710F0A61BB70B881F991F5A95A0
:10041000A9F780959095BC01CD010895F894FFCF80
:040420000D0A0000C1
:00000001FF
