:100000000C9434000C9446000C9446000C9446006A
:100010000C9446000C9446000C9446000C94460048
:100020000C9446000C9446000C9446000C94460038
:100030000C9446000C9446000C9446000C94460028
:100040000C9463000C9446000C9446000C944600FB
:100050000C9446000C9472000C9446000C944600DC
:100060000C9446000C94460011241FBECFEFD8E03C
:10007000DEBFCDBF21E0A0E0B1E001C01D92A13004
:10008000B207E1F70E949A000C94A0000C940000C3
:1000900080E48AB983E884BD83E085BD81E08093F4
:1000A0006E000895EAE7F0E080818064808308951F
:1000B00085E680937C008FE880937A0080E28093CD
:1000C0007E000C9452001F920F920FB60F921124D3
:1000D0008F938091000187BD8F910F900FBE0F907D
:1000E0001F9018951F920F920FB60F9211242F9305
:1000F0003F934F935F936F937F938F939F93AF93B0
:10010000BF93EF93FF9380917900809300010E9449
:100110005200FF91EF91BF91AF919F918F917F918D
:100120006F915F914F913F912F910F900FBE0F9064
:100130001F90189578940E9458000E944800FFCFA5
:04014000F894FFCF61
:00000001FF
