:100000000C9434000C943E000C943E000C943E0082
:100010000C943E000C943E000C943E000C943E0068
:100020000C943E000C943E000C943E000C943E0058
:100030000C943E000C943E000C943E000C943E0048
:100040000C943E000C943E000C943E000C943E0038
:100050000C943E000C943E000C943E000C943E0028
:100060000C943E000C943E0011241FBECFEFD8E04C
:10007000DEBFCDBF0E9440000C946D000C940000C8
:1000800080E388B980E68AB984B5836A84BD85B582
:10009000816085BD24E140E951E034990AC02F5FB9
:1000A00027BD28BD88EE93E0FA013197F1F701975B
:1000B000D9F73599F2CF215027BD28BD88EE93E0BE
:1000C000FA013197F1F70197D9F7E7CF84B5836A41
:0E00D00084BD85B5816085BD0895F894FFCF8D
:00000001FF
