:100000000C9434000C9451000C9451000C94510049
:100010000C9451000C9451000C9451000C9451001C
:100020000C9451000C9451000C9451000C9451000C
:100030000C9451000C9451000C9451000C945100FC
:100040000C9451000C9451000C94D9000C94510064
:100050000C9451000C9451000C9451000C945100DC
:100060000C9451000C94510011241FBECFEFD8E026
:10007000DEBFCDBF11E0A0E0B1E0E0EDF2E002C0F4
:1000800005900D92A430B107D9F711E0A4E0B1E0DA
:1000900001C01D92AB30B107E1F70E94A4000C949F
:1000A00066010C94000040E050E060E070E014C095
:1000B00080819A01E3E0220F331FEA95E1F7440FB4
:1000C000551F420F531F40535040992787FD90956D
:1000D000480F591F6F5F7F4FFB01EC5FFE4F808120
:1000E0008E3231F7CA0108958093C6008091C00016
:1000F00085FFFCCF0895EF92FF920F931F937B0132
:100100008C01CA01B90120E130E040E050E00E94DA
:100110002901CA01B901A80197010E9429012150B2
:100120003040832F992787FD9A958093C5002093AF
:10013000C40088E98093C10086E08093C2001F91CB
:100140000F91FF90EF90089580E88FBF60E875E20F
:1001500080E090E020E034E244EF50E00E947B0039
:1001600084B5836A84BD85B5816085BD8FE387B919
:1001700086E084B980E48AB980910801882341F03F
:100180000E94530090930201809301011092080194
:100190002091010130910201C901959587959595AE
:1001A000879588B9C901880F991F867085B927BDC1
:1001B000E3CF1F920F920FB60F9211242F933F930C
:1001C0008F93EF93FF938091C600209109013091A6
:1001D0000A01F901EC5FFE4F80838E3241F41092E8
:1001E0000A011092090181E08093080106C02F5F87
:1001F0003F4F30930A0120930901FF91EF918F91B6
:100200003F912F910F900FBE0F901F90189584B5BE
:10021000836A84BD85B5816085BD0895AC01DC012C
:100220000D900020E9F71197A81BB90B20E030E0F2
:100230000CC0FA01E20FF31F80818093C600809109
:10024000C00085FFFCCF2F5F3F4F2A173B0788F385
:10025000089597FB092E05260ED057FD04D014D023
:100260000AD0001C38F450954095309521953F4FA9
:100270004F4F5F4F0895F6F7909580957095619573
:100280007F4F8F4F9F4F0895A1E21A2EAA1BBB1BD1
:10029000FD010DC0AA1FBB1FEE1FFF1FA217B30752
:1002A000E407F50720F0A21BB30BE40BF50B661F68
:1002B000771F881F991F1A9469F76095709580952C
:1002C00090959B01AC01BD01CF010895F894FFCF3B
:0402D00030FF0000FB
:00000001FF
